:020000040800F2
:10000000A007002089010008330B0008F30700084F
:100010002F0B0008A90400085B1000080000000076
:10002000000000000000000000000000350C000887
:10003000CD05000800000000B90B0008490D0008BC
:100040009F0100089F0100089F0100089F01000810
:100050009F0100089F0100089F0100089F01000800
:100060009F0100089F0100089F0100089F010008F0
:100070009F0100089F0100089F0100089F010008E0
:100080009F0100089F0100089F0100089F010008D0
:100090009F0100089F0100089F0100089F010008C0
:1000A0009F0100089F0100089F0100089F010008B0
:1000B0009F010008AD0D0008000000009F0100082E
:1000C0009F01000800000000000000009F010008E0
:1000D00000000000750F00089F01000800000000EC
:1000E0009F0100089F0100089F01000800F002F82E
:1000F00000F03AF80AA090E8000C82448344AAF188
:100100000107DA4501D100F02FF8AFF2090EBAE885
:100110000F0013F0010F18BFFB1A43F0010318473B
:100120007415000094150000103A24BF78C878C1F7
:10013000FAD8520724BF30C830C144BF04680C60ED
:10014000704700000023002400250026103A28BF35
:1001500078C1FBD8520728BF30C148BF0B60704739
:100160001FB51FBD10B510BD00F02FF81146FFF7E9
:10017000F7FF01F093F800F04DF803B4FFF7F2FF3A
:1001800003BC00F06CFF000008480047FEE7FEE7F4
:10019000FEE7FEE7FEE7FEE7FEE7FEE7FEE7FEE737
:1001A00003480449044A054B70470000ED0000086D
:1001B000A0010020A0070020A0030020A003002031
:1001C00070477047704770477047754600F02CF8CD
:1001D000AE4605006946534620F00700854618B034
:1001E00020B5FFF7DDFFBDE820404FF000064FF0DF
:1001F00000074FF000084FF0000B21F00701AC465C
:10020000ACE8C009ACE8C009ACE8C009ACE8C0097A
:100210008D46704710B50446AFF300802046BDE818
:100220001040FFF7AABF00000048704740010020BF
:1002300021B1826842F00102826003E0826822F00C
:10024000010282607047000010B5044612488442E3
:1002500008D10121401500F0DDFC0021601500F0FF
:10026000D9FC17E00D48844208D10121001500F0A7
:10027000D1FC0021201500F0CDFC0BE008488442A1
:1002800008D10121C80300F0C5FC00214FF4004053
:1002900000F0C0FC10BD0000002401400028014017
:1002A000003C0140014600208A6802F004020AB1C5
:1002B000012000E0002070470146C86C80B2704702
:1002C0000246002013680B400BB1012000E0002023
:1002D0007047014600208A6802F008020AB1012036
:1002E00000E000207047000030B5024600200023E7
:1002F00050680F4C20400D790C6844EA05242043D7
:10030000506090680B4C2040D1E902542C434D7949
:1003100044EA450420439060D06A20F470000C7CCD
:10032000641EE4B2234340EA0350D06230BD0000B3
:10033000FFFEF0FFFDF7F1FFF0B504460D4600208B
:100340000021092D11DDE068A5F10A0606EB46073C
:10035000072606FA07F18843A5F10A0606EB4606CA
:1003600003FA06F10843E0600CE0206905EB45075D
:10037000072606FA07F1884305EB450603FA06F15E
:1003800008432061072A0FDA606B561E06EB8607CA
:100390001F2606FA07F18843561E06EB860605FA65
:1003A00006F10843606322E00D2A0FDA206BD61FA6
:1003B00006EB86071F2606FA07F18843D61F06EBD1
:1003C000860605FA06F10843206310E0E06AA2F110
:1003D0000D0606EB86071F2606FA07F18843A2F1F1
:1003E0000D0606EB860605FA06F10843E062F0BD4D
:1003F000816841F008018160704721B1826842F450
:10040000A002826003E0826822F4A002826070474A
:10041000816841F0040181607047000000B587B039
:1004200001214FF4017000F0E5FB4FF4004000F0B3
:10043000C5FB0120ADF8040000208DF8070001A9DC
:10044000174800F0C4F81748FFF7FEFE002002909E
:100450008DF80C008DF80D004FF460200490002002
:10046000059001208DF8180002A90E48FFF73CFF07
:1004700001210C48FFF7DCFE0A48FFF7B9FF00BF77
:100480000848FFF726FF0028FAD10648FFF7C0FF0B
:1004900000BF0448FFF706FF0028FAD107B000BDEF
:1004A000000801400024014000BFFEE770B53E484F
:1004B0000078012868D11421002000F083F93B491D
:1004C00008800846008840F6AF414843642148430D
:1004D00040F6FF7190FBF1F6304601F043F8054617
:1004E00033480168284600F05BFF04463148016844
:1004F000204600F055FF3049086000212E48006872
:1005000001F048F802D200202B4908602A48006810
:1005100001F008F8294908802948008800EB80008C
:100520008000642190FBF1F0264908602348008890
:1005300023490988884211DA214800881F4909881F
:10054000401A01280ADD20480068B0F5FA7F22D25F
:100550001D480068401C1C4908601CE017480088C2
:1005600017490988884216DD14480088144909880B
:10057000401A01280FDD1448006860B11248006875
:10058000401E1149086006E000200E4908600E492F
:1005900008600A4908800B4909680B4A12688818E4
:1005A00000F0A2FE70BD0000200000203C000020F2
:1005B0002C00002030000020280000202400002013
:1005C00022000020380000203400002070472DE970
:1005D000F0410246002500260020002300240027C9
:1005E00091F803C00CF00F0591F803C00CF0100C4B
:1005F000BCF1000F03D091F802C04CEA050591F858
:1006000000C0BCF1000F31D0146800202BE04FF087
:10061000010C0CFA00F3B1F800C00CEA03069E428C
:1006200020D183004FF00F0C0CFA03F7BC4305FAFE
:1006300003FC4CEA040491F803C0BCF1280F06D176
:100640004FF0010C0CFA00FCC2F814C00AE091F85B
:1006500003C0BCF1480F05D14FF0010C0CFA00FCAF
:10066000C2F810C0401C0828D1D31460B1F800C0F3
:10067000BCF1FF0F34DD546800202EE000F1080CBF
:100680004FF0010808FA0CF3B1F800C00CEA0306B9
:100690009E4221D183004FF00F0C0CFA03F7BC43AC
:1006A00005FA03FC4CEA040491F803C0BCF1280FDE
:1006B00005D100F1080C08FA0CF8C2F8148091F882
:1006C00003C0BCF1480F07D100F1080C4FF001083E
:1006D00008FA0CF8C2F81080401C0828CED35460E9
:1006E000BDE8F081F0B50A46002300240021002572
:1006F00000F00046B6F1004F02D11D4EF16901E055
:100700001B4E7168C0F3034583B200F44016B6F582
:10071000401F08D121F07061154E766826F0706692
:10072000134F7E6012E000F48016B6F5801F06D1EC
:10073000032606FA05F4A14341F0706106E0460D78
:10074000360103FA06F6B14341F0706122B1460D5D
:10075000360103FA06F6314300F00046B6F1004FC9
:1007600002D1034EF16101E0014E7160F0BD000065
:10077000000001400246002093680B400BB10120AD
:1007800000E0002070474161704701617047000040
:1007900010B504460723012221460948FFF7CCFD86
:1007A00001210748FFF729FE00BF02210448FFF797
:1007B00087FD0028F9D00248FFF77EFD10BD00003C
:1007C000002401402DE9F04107460C460025002693
:1007D00008E03846FFF7DCFF0544052000F06EFC1A
:1007E000701CC6B2A642F4DBB5FBF4F080B2BDE8E3
:1007F000F08100BFFEE7000008B50121092000F0EC
:10080000F9F901210648FFF76DFF7820ADF80000E7
:1008100048208DF8030069460248FFF7D8FE08BD5E
:1008200000023000000C014070B5044614B10120F4
:100830002F4908702E480078002835D040212D48D7
:10084000FFF798FF70B120212A48FFF793FF48B1C6
:1008500010212848FFF78EFF20B108212548FFF717
:1008600089FF08BB0A2000F029FC002020490870FD
:1008700040212048FFF77EFF08B9012070BD2021EC
:100880001C48FFF777FF08B90220F7E71021194845
:10089000FFF770FF08B90320F0E708211548FFF7BC
:1008A00069FF18BB0420E9E740211248FFF762FF07
:1008B00001281BD120210F48FFF75CFF012815D12B
:1008C00010210C48FFF756FF012801D1012500E057
:1008D000002508210748FFF74DFF012800D100E05F
:1008E0000020054015B10120014908700020C5E72E
:1008F00075000020000C014010B5044604F0010012
:1009000018B101201C49086002E000201A49086063
:1009100004F0020020B101201749091F086003E01C
:1009200000201549091F086004F0040018B10120D7
:100930001249086002E000201049086004F0080035
:1009400020B101200D49091F086003E000200B4978
:10095000091F086004210A48FFF717FF40F6B83066
:1009600000F07FFB04210648FFF70DFF40F6B8308A
:1009700000F077FB10BD0000848121429C012142E0
:10098000000C014038B5002401210C2000F032F9A0
:1009900040F60740ADF8000003208DF8020010205B
:1009A0008DF8030069463948FFF711FEC020ADF805
:1009B000000003208DF8020010208DF80300694626
:1009C0003348FFF704FE4FF480613048FFF7DBFE49
:1009D00043F6982000F045FB4FF400612B48FFF7E9
:1009E000D2FE0320FFF788FF43F6982000F039FB82
:1009F0000320FFF781FF43F6982000F032FB03202D
:100A0000FFF77AFF0220FFF777FF282000F056F863
:100A100044F6206000F025FB082000F04FF844F673
:100A2000206000F01EFB012000F048F844F6206032
:100A300000F017FB062000F041F844F6206000F0BB
:100A400010FB0C2000F03AF844F6206000F009FB9F
:100A5000012000F033F8802000F030F800BF05E0FE
:100A60000C49085D00F03EF8601CC4B2102CF7DBA6
:100A7000C02000F023F8002405E00749085D00F0DD
:100A800031F8601CC4B2102CF7DB38BD000C0140FB
:100A900000080140530000206400002070B50446A7
:100AA0000E46012E03D104F17F00C5B202E004F12D
:100AB000BF00C5B2284600F001F870BD10B504466D
:100AC0004FF400610648FFF75EFE2011FFF714FFA8
:100AD0002046FFF711FF42F2107000F0C2FA10BD7D
:100AE000000C014010B504464FF400610648FFF7C2
:100AF0004CFE2011FFF700FF2046FFF7FDFE42F2FB
:100B0000107000F0AEFA10BD000C014070B5054643
:100B10000E46144631462846FFF7C0FF03E0207812
:100B2000FFF7E0FF641C20780028F8D170BD00BFFB
:100B3000FEE7704770B5002100230F22C47804B38C
:100B4000154C246804F4E064C4F5E064210AC1F1A2
:100B50000403CA40447804FA03F184781440214322
:100B600009010E4C0678A155047804F01F050124F4
:100B7000AC4005786D11AD0005F1E025C5F80041E8
:100B800009E0047804F01F050124AC40044D067808
:100B9000761145F8264070BD0CED00E000E400E061
:100BA00080E100E002490143024A11607047000001
:100BB0000000FA050CED00E070470000014600203F
:100BC000034A506820F440400843506070470000DA
:100BD0000010024029B1064AD2690243044BDA618F
:100BE00004E0034AD2698243014BDA617047000096
:100BF0000010024029B1064A92690243044B9A61EF
:100C000004E0034A92698243014B9A6170470000F5
:100C10000010024029B1064AD2680243044BDA6050
:100C200004E0034AD2688243014BDA607047000057
:100C300000100240704710B500F002F810BD00002F
:100C40000CB50020019000903348006840F48030DB
:100C50003149086000BF3048006800F4003000905F
:100C60000198401C0190009818B90198B0F5A06F48
:100C7000F1D12948006800F4003010B10120009043
:100C800001E0002000900098012843D1234800682B
:100C900040F01000214908600846006820F0030079
:100CA00008600846006840F0020008601A48406882
:100CB000194948600846406848600846406840F462
:100CC000806048600846406820F47C104860084610
:100CD000406840F4E81048600846006840F08070C2
:100CE000086000BF0C48006800F000700028F9D0D0
:100CF0000948406820F003000749486008464068FA
:100D000040F00200486000BF0348406800F00C005B
:100D10000828F9D10CBD000000100240002002405C
:100D2000042808D14FF0E021096941F004014FF097
:100D3000E022116107E04FF0E021096921F0040190
:100D40004FF0E022116170477047000010B5134862
:100D5000006840F0010011490860084640681049E9
:100D600008400E494860084600680E4908400B4993
:100D700008600846006820F4802008600846406843
:100D800020F4FE0048604FF41F008860FFF753FF17
:100D90004FF000600449086010BD000000100240E0
:100DA0000000FFF8FFFFF6FE08ED00E010B501219E
:100DB0000B4800F05CF890B10121094800F048F8B8
:100DC00008480068401C0749086008460068B0F5FC
:100DD000967F04D10020086001200349087010BDEF
:100DE0000004004044000020400000207FB505467C
:100DF0000C4601210220FFF7EDFE681E80B2ADF81F
:100E00000800601E80B2ADF804000020ADF80A00B2
:100E1000ADF8060001A90D4800F044F80122114682
:100E20000A4800F035F81D208DF8000003208DF8E9
:100E300001008DF8020001208DF803006846FFF7DD
:100E400079FE0121014800F006F87FBD0004004052
:100E5000CA430282704721B1028842F00102028037
:100E600004E002884FF6FE731A400280704730B5E6
:100E70000246002000230024158A05EA0103958913
:100E800005EA010413B10CB1012000E0002030BDDF
:100E90001AB183890B43838102E083898B43838169
:100EA00070470000002202881D4B98420ED01D4B57
:100EB00098420BD0B0F1804F08D01B4B984205D020
:100EC0001A4B984202D01A4B984204D14FF68F73B6
:100ED0001A404B881A43174B984207D0164B98423A
:100EE00004D04FF6FF431A40CB881A4302808B8808
:100EF00083850B8803850A4B98420BD0094B984297
:100F000008D00E4B984205D00D4B984202D00D4BA5
:100F1000984201D10B7A0386012383827047000037
:100F2000002C014000340140000400400008004053
:100F3000000C004000100040001400400040014040
:100F4000004401400048014008B501210420FFF79A
:100F500051FE3820ADF8000010208DF8030003206A
:100F60008DF8020069460248FFF731FB08BD00001A
:100F70000008014010B540F225511D4800F03EF830
:100F800010B31B4800F064F8C4B21A48008800F49B
:100F90000040C8B91748008800F4804060B10A2CAE
:100FA00003D000201349088020E01248008840F454
:100FB00000401049088019E00D2C06D10D4800882A
:100FC00040F480400B49088010E00A480088C0F3D4
:100FD0000D0009490C5407480088401C0549088049
:100FE00008460088C72801DD0020088010BD0000E9
:100FF000003801401C0000207800002070B5024637
:10100000002400230025002040F66A16B14200D1DA
:1010100000BFC1F3421501F01F03012606FA03F3D6
:10102000012D02D19689334006E0022D02D1168AA5
:10103000334001E0968A33400C12012606FA04F48C
:101040001688344013B10CB1012000E0002070BDBF
:1010500001468888C0F30800704700BFFEE700BF64
:10106000704701B500984000009000BF0098411EF5
:1010700000910028FAD108BD10B56FF00400FFF709
:101080004FFE0A4800680A49B0FBF1F009490870B0
:101090000846007800EB4001C1EBC0104FF6FF712D
:1010A00001EAC0000449088010BD000000000020D3
:1010B00000127A0014000020160000200146114A98
:1010C00012884A434FF0E0235A6100229A611A467F
:1010D000126942F001021A6100BF4FF0E02210696C
:1010E00000F001021AB100F48032002AF5D04FF06E
:1010F000E022126922F001024FF0E0231A6100227F
:101100009A617047160000200146114A12784A433E
:101110004FF0E0235A6100229A611A46126942F0A8
:1011200001021A6100BF4FF0E022106900F00102D5
:101130001AB100F48032002AF5D04FF0E022126993
:1011400022F001024FF0E0231A6100229A617047F9
:101150001400002070B52B480088642190FBF1F04A
:1011600084B2CC20FFF7AAFC0A2094FBF0F02649B9
:101170000D5C2846FFF7B6FC0A2094FBF0F100FB5B
:10118000114021490D5C2846FFF7ACFC1F48008840
:101190000A2190FBF1F084B2C220FFF78FFC64209B
:1011A00094FBF0F018490D5C2846FFF79BFC642087
:1011B00094FBF0F100FB11400A2190FBF1F0124981
:1011C0000D5C2846FFF78EFCC520FFF777FC0A2050
:1011D00094FBF0F100FB11400B490D5C2846FFF732
:1011E00081FC0B480078012805D10AA201210B20BF
:1011F000FFF78CFC04E008A201210B20FFF786FC1E
:1012000070BD0000220000204800002024000020C3
:10121000200000206F6E20006F66660010B5002071
:10122000FFF702FB1A49087008460078012806D02B
:1012300002280FD0032812D0042825D119E0154820
:10124000007818B901201349087002E00020114904
:1012500008701AE04FF47A700F49088015E00E48C4
:101260000088002804DD0C48008864380A4908809A
:101270000BE009480088B0F5FA6F04DA06480088E8
:1012800064300549088000E000BF00BF10BD0000C9
:10129000210000202000002022000020FFF7ECFEAB
:1012A000FFF754FD4FF4A060FFF77CFCFFF7A4FAB2
:1012B000FFF768FB4FF4E1510A20FFF797FDFFF7B6
:1012C00043FEFFF7ABF80CE0FFF7A8FFFFF7EEF8DF
:1012D00004480078012804D1002002490870FFF773
:1012E00039FFF1E74000002070B50446254608218B
:1012F0002448FFF748FA0A20FFF706FF10261BE0F4
:10130000C5F3C03020B120211E48FFF73EFA03E0AC
:1013100020211C48FFF737FA6D0010211948FFF70C
:1013200034FA0A20FFF7F0FE10211648FFF72BFAD7
:101330000A20FFF7E9FE761E002EE1D110211148A8
:10134000FFF723FA0A20FFF7DFFE10210D48FFF711
:101350001AFA0A20FFF7D8FE10210A48FFF715FAFB
:101360000A20FFF7D1FE10210648FFF70CFA0A20E9
:10137000FFF7CAFE08210348FFF707FA0A20FFF724
:10138000C3FE70BD00080140401058BFC0F140408E
:10139000491058BFC1F140418142EFF300807047CE
:1013A0004FF47F0C1CEAD0121EBF1CEAD11392EA44
:1013B0000C0F93EA0C0F00F0858090EA010F48BFF4
:1013C00042F4807240F4000C41F400002CF07F41A4
:1013D00020F07F4000B58142A2EB03020FF2081C0F
:1013E000ACEB504EC0F100009EF800E04FEA4E0E0C
:1013F00000FB0EFC38BF49004FEA2C1C02F5FA0234
:101400000CFB0EF34FEACE1E4FEA112C4FEAC1211E
:101410000EEB635E42EB22420EFB0CFC4FEA1C53C8
:1014200000FB03114FEA112C4FEA01310EFB0CFCBB
:101430004FEADC4C00FB0C11C14228BF09184CEBF1
:1014400003335DF804EB10EB410143EBC250B2F5FE
:101450007C0F38BF704729D512F0F00F1CBF00F188
:10146000C04000F0004070470081828384858687F9
:1014700088898B8C8D8E8F919293959697999A9C53
:101480009D9FA0A2A3A5A7A8AAACAEB0B2B3B5B7C2
:10149000B9BCBEC0C2C5C7C9CCCED1D4D7D9DCDF98
:1014A000E2E6E9ECF0F3F7FAFE0000004FEA400C48
:1014B0000CF1807CBCF17E4F28BF7047B0F1C0407A
:1014C00000F0E2B890EA010F0CEAD11348BF42F4F1
:1014D0008072624538BF634507D213F47F0F16D080
:1014E00080EA010000F00040704710B500F086F877
:1014F000097EFC3E00F005B880EA010000F00040E3
:10150000704780EA010000F0004000F0BDB812F41E
:101510007F0F04BF0248704780EA010000F0B4B8B2
:101520000000C07FC10DD1F19E0206DB4FEA00230F
:1015300043F0004323FA02F07047004207D54FEA18
:101540004001B1F1FE4F02D24FF00000704710B5DC
:1015500000F054F849922480002070476FEA200080
:101560007047000010F0004148BF4042B0FA80F3DD
:1015700010FA03F2C3F19D030BD051EAC35101EB02
:101580001220530638BF704700F1010008BF20F059
:101590000100704750EA010C00F113801CF5000FA8
:1015A00058BFBCF5000F01D48842704707D710F52B
:1015B000000F58BF11F5000F15D4884270478942BB
:1015C00070471CF5000F04D5BCF5000FF7D581421C
:1015D00070474FF0807C1CEB400F38BF1CEB410F75
:1015E00001D28142704710B500F008F892244900FA
:1015F0004FF000504FF08051FFF7C6BE0EF1020EC3
:101600002EF0030E5EF8044B244204D44FEA41024C
:10161000B2F17F4F11D84FEA4003B3F17F4F0CD89E
:101620000ED14FEAD07CB2F17F4F0CEB4C0C0CF199
:10163000020C08BF4CEBD17C04E04FF0080C01E039
:101640004FEAD17C0CEB4C0324FA03F404F00704BA
:10165000B4F1040C06D20EEB840CBDE810404CF043
:10166000010C6047DFE80CF0070802024FF0004071
:10167000A0F5800010BD0846420018BFD2F180726C
:1016800088BF00F0004010BDFF2141EAD050C005E6
:1016900070470000B4160008000000207800000029
:1016A000280100082C1700087800002028070000F7
:1016B0004401000800A24A040000000000000000ED
:1016C00001020304060708090000000000000000F2
:1016D000000000000000E80300000000000000001F
:1016E0000000404200000040000000000000000038
:1016F0000000000000000000000000003031323324
:101700003435363738390020202020537461727404
:101710003A6F666620202000523A2D2D2E2D6D4105
:0C1720002020533A2D2D6D4100010000E7
:040000050800018965
:00000001FF
